:10000000020364C0E0C083C082C09130980BD2026A
:100010009000A8E599F05398FED091D082D083D07B
:02002000E032CC
:10002300020003C0E0C083C082C09130F80AD2034B
:100033009000A9E59AF0C2F830F905200102C2F94F
:10004300D091D082D083D0E032759101E4F5B1F53F
:10005300B2F5B3F5B4F5B5F5B6F5C2F5C3F5B9F533
:0D006300BAF5BDF5BE759102F584F5852254
:0F007B0002002612004C1204C31203FE80FE2264
:10008B000204AFBB010CE58229F582E5833AF583C7
:10009B00E0225006E92582F8E622BBFE06E925821E
:1000AB00F8E222E58229F582E5833AF583E493228F
:1000BB00BB010689828A83F0225002F722BBFE0124
:1000CB00F322F8BB010DE58229F582E5833AF5832E
:1000DB00E8F0225006E92582C8F622BBFE05E92589
:1000EB0082C8F222BC000BBE0029EF8DF084FFAD5D
:1000FB00F022E4CCF875F008EF2FFFEE33FEEC3373
:10010B00FCEE9DEC984005FCEE9DFE0FD5F0E9E46E
:10011B00CEFD22EDF8F5F0EE8420D21CFEADF0758D
:10012B00F008EF2FFFED33FD4007985006D5F0F2A6
:10013B0022C398FD0FD5F0EA22A3F8E0C5F025F015
:10014B00F0E582158270021583E0C838F0E822E8EA
:10015B008FF0A4CC8BF0A42CFCE98EF0A42CFC8AA1
:10016B00F0EDA42CFCEA8EF0A4CDA8F08BF0A42D1E
:10017B00CC3825F0FDE98FF0A42CCD35F0FCEB8EBF
:10018B00F0A4FEA9F0EB8FF0A4CFC5F02ECD39FE75
:10019B00E43CFCEAA42DCE35F0FDE43CFC2275F0EA
:1001AB0008758200EF2FFFEE33FECD33CDCC33CC71
:1001BB00C58233C5829BED9AEC99E58298400CF58C
:1001CB0082EE9BFEED9AFDEC99FC0FD5F0D6E4CEBA
:1001DB00FBE4CDFAE4CCF9A88222B800C1B90059EE
:1001EB00BA002DEC8BF084CFCECDFCE5F0CBF978BB
:1001FB0018EF2FFFEE33FEED33FDEC33FCEB33FB4F
:10020B0010D703994004EB99FB0FD8E5E4F9FA22D8
:10021B007818EF2FFFEE33FEED33FDEC33FCC933D3
:10022B00C910D7059BE99A4007EC9BFCE99AF90F9B
:10023B00D8E0E4C9FAE4CCFB2275F010EF2FFFEE07
:10024B0033FEED33FDCC33CCC833C810D7079BEC52
:10025B009AE899400AED9BFDEC9AFCE899F80FD5CA
:10026B00F0DAE4CDFBE4CCFAE4C8F922EB9FF5F02D
:10027B00EA9E42F0E99D42F0E89C45F022E8600FCF
:10028B00ECC313FCED13FDEE13FEEF13FFD8F122BD
:10029B00ECF0A3EDF0A3EEF0A3EFF022A8828583A0
:1002AB00F0D083D0821202BE1202BE1202BE120224
:1002BB00BEE473E493A3C583C5F0C583C8C582C8E8
:1002CB00F0A3C583C5F0C583C8C582C822D083D02F
:1002DB0082F8E4937012740193700DA3A393F874D6
:1002EB000193F5828883E473740293B5F00674036B
:1002FB00936860E9A3A3A3A380D8BB010689828A74
:10030B0083E0225002E722BBFE02E32289828A832A
:10031B00E49322F8E0FBA3A3E0F925F0F0E58215C6
:10032B008270021583E0FA38F022EBF0A3EAF0A317
:10033B00E9F022D083D082F8E493701274019370A9
:10034B000DA3A393F8740193F5828883E47374026D
:10035B00936860EFA3A3A380DF787FE4F6D8FD90CA
:10036B0000007FFF7E10E4F0A3DFFCDEFA75810A4C
:10037B000203B902007EE493A3F8E493A34003F6CF
:10038B008001F208DFF48029E493A3F85407240CCE
:10039B00C8C333C4540F4420C8834004F4568001AF
:1003AB0046F6DFE4800B0102040810204080900425
:1003BB0092E47E019360BCA3FF543F30E509541FC8
:1003CB00FEE493A360010ECF54C025E060A840B8B3
:1003DB00E493A3FAE493A3F8E493A3C8C582C8CA31
:1003EB00C583CAF0A3C8C582C8CAC583CADFE9DE04
:1003FB00E780BE9000AAE4F0A37420F0E4F59175B9
:10040B00910253E20F43E2A075910253E2F043E2F3
:10041B000AF591A2AF9204C2AF75C7AA75C755432F
:10042B009740A20492AFE59644BF64BF60F8438F38
:10043B0020538FF8438F037591029000AAE0FEA31F
:10044B00E0FFFBE4C39BFFE49EFE74019400FDE41C
:10045B009400FC78081202888FBFE4F5919000AAF3
:10046B00E0FEA3E0FFFBE4C39BFFE49EFE7401945C
:10047B0000FDE49400FCEFE48F86F591439C04F5BA
:10048B0091438F08D2AF2241009E0041009F004450
:10049B0000A4000000004400A000000000C100C147
:1004AB0001C10200C0D0C091A2B3B392B375910049
:1004BB00538FEFD091D0D03275910153B1F743B236
:0B04CB000875910153C2F743C30822DB
:00000001FF
